:102E1700C2C2C2C0D2C1122DCFD2C2E4F596F59577
:102E270085A0667F14FE122DD3C2C2E56620E7E0B7
:012E37002278
:062D7E00F583122654FF4C
:102D84008F65122E17D2C2D2C0C2C17596FFE4F568
:102D9400958565A07F14FE122DD3C2C27F147E00D8
:032DA400022DD32A
:052DA700E5552556FF73
:102DAC008F65122E17D2C2C2C0C2C17596FFE4F550
:102DBC00958565A07F14FE122DD3C2C27F147E00B0
:032DCC00022DD302
:062CA0008B128A13891457
:102CA600122DACE4F516E516C39515502EAB12AAF7
:102CB60013A91475F002E516A4F58285F083122D8A
:102CC60080AB12AA13A91475F002E516A42401F527
:0B2CD60082E435F0122D7E051680CB45
:012CE10022D0
:022C5B008B608C
:102C5D00BF0105ED2480F564BF0205ED2490F564F8
:102C6D00BF0305ED2488F564BF0405ED2498F564D4
:102C7D00AF64122DACE5606019AB610563E563AA25
:102C8D00627002056214F912263BFF122D84156045
:022C9D0080E3D2
:012C9F002212
:022B68008F5587
:102B6A00E4F556E5552556FF122DAC7FFF122D844C
:102B7A00E4FF122D840556E5552556FF122DACE4C7
:102B8A00FF122D84E4FF122D840556E556C39402E4
:102B9A0040D1755602E5552556FF122DACE4FF12B9
:102BAA002D84E4FF122D840556E556C3941040E5A2
:012BBA0022F8
:022BBB008F5534
:102BBD00E4F556E5552556FF122DAC7FFF122D84F9
:102BCD00E4FF122D840556E5552556FF122DACE474
:102BDD00FF122D84E4FF122D840556E556C394048F
:102BED0040D1755604E5552556FF122DACE4FF1264
:102BFD002D84E4FF122D840556E556C3941040E54F
:012C0D0022A4
:0228AB008F5547
:1028AD00E4F556122DA77FFF122D84E4FF122D841F
:1028BD000556122DA7E4FF122D84E4FF122D840579
:1028CD0056E556C3940240DB755602122DA7E4FF60
:1028DD00122D84E4FF122D840556E556C39406404F
:1028ED00EAE5552406FF122DAC7F18122D84E4FF66
:1028FD00122D84E5552407FF122DAC7F3C122D843B
:10290D00E4FF122D84E5552408FF122DAC7F3C12F7
:10291D002D84E4FF122D84E5552409FF122DAC7F83
:10292D0018122D84E4FF122D8475560A122DA7E47A
:10293D00FF122D84E4FF122D840556E556C3941025
:02294D0040EA5E
:01294F002265
:022744008F55AF
:10274600E4F556E5552556FF122DAC7FFF122D8474
:10275600E4FF122D840556E5552556FF122DACE4EF
:10276600FF122D84E4FF122D840556E556C394040A
:1027760040D1E5552404FF122DACE4FF122D84E46C
:10278600FF122D84E5552405FF122DACE4FF122D12
:1027960084E4FF122D84E5552406FF122DAC7F1824
:1027A600122D84E4FF122D84E5552407FF122DAC6B
:1027B6007F3C122D84E4FF122D84E5552408FF1278
:1027C6002DAC7F3C122D84E4FF122D84E55524099F
:1027D600FF122DAC7F18122D84E4FF122D8475563E
:1027E6000AE5552556FF122DACE4FF122D84E4FFB1
:0C27F600122D840556E556C3941040E5F2
:0128020022B3
:102CE2007F34122DAC7F36122DACE4F51BE51B248C
:102CF20080FF122DAC7F80122DACE4F51CE4FF1294
:102D02002D84051CE51CC3942040F2051BE51BC362
:042D1200942040D9F0
:012D1600229A
:062950008F558D568B57D8
:102956007F34122DAC7F36122DACE4F55DE55DC3F8
:1029660095575072E555255DFF122DAC7F80122DCF
:10297600ACE4F55EE55EC39556501CE556855DF004
:10298600A4255EF582E435F0F583AB58AA59A95A19
:10299600122D80055E80DDE4F55BF55CE556FD7C79
:1029A60000C3E55C9DE55B9C5027E55D2557FFE48C
:1029B60033FE122681E55C2FFFE55B3EAB58AA5934
:1029C600A95A8F82122D7E055CE55C70CF055B806F
:0B29D600CB055D0229637F30022DACB1
:102E70008F1D8D1E7F34122DACAF1E122DACAF1DD9
:032E8000022DAC74
:062AF6008F088D098B0A18
:102AFC00E4F50FE50FC3950B5058E509250FFFE4DE
:102B0C0033FEC3EF9420EE64809480E508C4540F28
:102B1C0050092480FFE509248080072488FFE509FB
:102B2C002460250FFD122E70E4F510E510C3950AF4
:102B3C00501CE50A850FF0A42510F582E435F0F55C
:102B4C0083AB0CAA0DA90E122D80051080DD050F8C
:0C2B5C0080A17F36122DAC7F30022DAC22
:102D4C00D2C3122DCF7F30122DAC122DCF7F021299
:102D5C002DAC122DCF7F0C122DAC122DCF7F061265
:102D6C002DAC122DCF7F80122DAC122DCF7F0102F6
:022D7C002DAC7C
:102E3800AD07AC06ECC313ED1375F008A42480FFAE
:102E4800ED5401C454F02FFF122DAC7F0F022DACAE
:042DCF007F147E00EF
:102DD300E4FDFCC3ED9FEC9E5015E4FBFA0BBB0036
:0F2DE300010AEB64784A70F50DBD00010C80E425
:012DF20022BE
:0A000E00E4FEEEC39F50030E80F8DD
:0100180022C5
:10120000313634373200353632323300343233350A
:101210003600323335353200373533363700D5E3D3
:10122000BDADB4F3D1A7B9E2B5E7D1A7D4BA00B543
:10123000E7D7D3CFB5CDB3C9E8BCC60066726F6D32
:10124000A3BAB2CCC3F7D0F9006E3A33313830319B
:10125000303134383400C3DCC2EB002000B2CBB5EF
:10126000A5BDE7C3E600312EB8E8C7FAD1A1D4F195
:1012700000322EBBF9B1BEB5AFD7E000332ED3CECE
:10128000CFB7C4A3BFE900B8E8C7FAC4BFC2BC0067
:10129000312EC7A7D3EBC7A7D1B000322EBAECBA14
:1012A000D3B9C800342ECFC2D2BBD2B300C7A7D3A4
:1012B000EBC7A7D1B0003136A3BACDCBB3F600BA95
:1012C000ECBAD3B9C800C7EBD1A1D4F1B2A5B7C568
:1012D000B8E8C7FA00312ECCECBFD5D6AEB3C70004
:1012E000322EC2BCD2F400332EC9CFD2BBD2B3004F
:1012F000CCECBFD5D6AEB3C700CEDED2F4C6B500B7
:10130000B2A5B7C5D6D000312EC2BCD2F4322ED48D
:10131000DDCDA300332EBBD8B7C5B6D4B1C800C24B
:10132000BCD2F4BFAAC6F400C2BCD2F4B9D8B1D5BD
:1013300000BBD8B7C500D4ADD2F400B8DFD2F400FA
:10134000B5CDD2F400D6D0D2F400D2F4B7FBA3BA14
:101350003100D2F4B7FBA3BA3200D2F4B7FBA3BA80
:101360003300D2F4B7FBA3BA3400D2F4B7FBA3BA6C
:101370003500D2F4B7FBA3BA3600D2F4B7FBA3BA58
:101380003700D2F4B7FBA3BA3000313ABFB4C6D7A6
:10139000B5AFC7FA00323ABCC7D2E4B4F3CAA6006C
:1013A0003135A3BACDCBB3F600BFB4C6D7B5AFC7FE
:1013B000FA00313ABAECBAD3B9C800323AC7A7D367
:1013C000EBC7A7D1B000D4ADC6D7A3BA646F2020B5
:1013D000D6D0D2F400D4ADC6D7A3BA72652020D639
:1013E000D0D2F400D4ADC6D7A3BA6D692020D6D030
:1013F000D2F400D4ADC6D7A3BA66612020D6D0D22D
:10140000F400D4ADC6D7A3BA736F2020D6D0D2F4DF
:1014100000D4ADC6D7A3BA6C612020D6D0D2F400D8
:10142000D4ADC6D7A3BA73692020D6D0D2F400D4E5
:10143000ADC6D7A3BA646F2020B5CDD2F400D4AD29
:10144000C6D7A3BA72652020B5CDD2F400D4ADC6FC
:10145000D7A3BA6D692020B5CDD2F400D4ADC6D7DC
:10146000A3BA66612020B5CDD2F400D4ADC6D7A30F
:10147000BA736F2020B5CDD2F400D4ADC6D7A3BACD
:101480006C612020B5CDD2F400D4ADC6D7A3BA7319
:10149000692020B5CDD2F400D4ADC6D7A3BA646F0D
:1014A0002020B8DFD2F400D4ADC6D7A3BA7265202D
:1014B00020B8DFD2F400D4ADC6D7A3BA6D6920201E
:1014C000B8DFD2F400D4ADC6D7A3BA66612020B885
:1014D000DFD2F400D4ADC6D7A3BA736F2020B8DF33
:1014E000D2F400D4ADC6D7A3BA6C612020B8DFD245
:1014F000F400D4ADC6D7A3BA73692020B8DFD2F404
:1015000000D4DAB5AFA3BA646F00D4DAB5AFA3BA2A
:10151000726500D4DAB5AFA3BA6D6900D4DAB5AF9D
:10152000A3BA666100D4DAB5AFA3BA736F00D4DA98
:10153000B5AFA3BA6C6100D4DAB5AFA3BA736900D2
:10154000D4DAB5AFA3BA3000B5C3B7D63A31B7D6FF
:1015500000B5C3B7D63A32B7D600B5C3B7D63A331B
:10156000B7D600B5C3B7D63A34B7D600B5C3B7D6E9
:101570003A35B7D600B5C3B7D63A36B7D600B5C3F5
:10158000B7D63A37B7D600B5C3B7D63A38B7D600CC
:10159000B5C3B7D63A39B7D600B5C3B7D6A3BA31B3
:1015A00030B7D600B5C3B7D63A30B7D600BCC7D22D
:1015B000E4B4F3CAA600C4D1B6C8312D313000C49A
:1015C000D1B6C8B8DFCBD9B6C8BFECB7D6B8DF0044
:1015D000BADCBFC9CFA7CAA7B0DCC1CB00B9A7CFBF
:1015E000B2C4E3B3C9B9A6C1CB00B5C3B7D6A3BAD9
:1015F000003100320033003400350036003700304F
:1016000000000000000000000000000000000000DA
:1016100000000000000000000000000000000000CA
:1016200000000000000000000000000000000000BA
:1016300000000000000000000000000000000000AA
:10164000000000002000000000000000000000007A
:10165000000000002000000000000000000000006A
:10166000000000001000000000000000000000006A
:101670000000000008000000000000000000000062
:10168000000000000C00000000000000000000004E
:101690000000000004000000000000000000000046
:1016A0000000000006199800000000000000000083
:1016B00000000000030FF000000000000000000028
:1016C00000000000008FE0000000000000000000AB
:1016D000000000000187E0000000000000000000A2
:1016E000000000000147C0000000000000000000F2
:1016F000000000001883C00000000000000000008F
:10170000000000003C7180000000000000000000AC
:10171000000000003C1180000000000000000000FC
:10172000000000001F118000000000000000000009
:10173000000000003F9000000000000000000000DA
:10174000000000007FC40000000000000000000056
:1017500000000000FFCA0000078000000000000C2D
:1017600000000001FFC900000FC000000000000ED3
:1017700000000003FF98800003C000000000001C70
:101780000000000FFE14000001C000000000001C5B
:101790000000001FFC09000181C0000020000018AB
:1017A0000000001FF8064001C3C000007C000038A4
:1017B00000000001F8008001FF8000007E0000387A
:1017C00000000000F1802801FF0000003E000C3006
:1017D000FC000000711C4001BE00000008000C70FD
:1017E0003C000000787C1001FC00000000000C6050
:1017F0001C00000078FC2400F800000000001E60BF
:10180000000000007E3C92003000000000000C60F0
:10181000000007F0781C09002200000000000060B2
:1018200000000FF8713C0000EE0000000C000060AA
:1018300000000FFCF33C0001FC00000FFE00006004
:1018400000000FFFF13C000F9800007FFE00003009
:10185000000007FFF07C003F300000603E00001FEA
:101860000000003FF07C007C7F8000003C00000F07
:101870000000003CF07E0078FF8000007800000E41
:1018800000000078F07FC001E7800001E000003C2C
:1018900000000070F03FE0008E000003C000007800
:1018A000000000F0F03FF0001C000007000000F016
:1018B000000001F0F01FE0007000000E000003E0E7
:1018C000000001F0F0000001E000401C0000078073
:1018D000000013E0F0000007F800803800000F80DF
:1018E000000023E4F0020003FFE0003800001F10B6
:1018F0000E0053E4F00000007FF8003FFE001E18C9
:101900003E0191C0F00100000BFE001FFFC01E1E33
:10191000FE004808F2810025483F80003FE0000FAC
:10192000FC02AC0871242488800F800003C00003EF
:10193000F80885A4040081120002000000000000E5
:10194000001A0A09152A52240000000000000000B5
:101950000010290AA005014000000000000000005E
:10196000003692A905285200000000000000000087
:101970000060509490522000000000000000000021
:101980000042A500040288000000000000000000E2
:1019900000D912AD50A000000000000000000000BF
:1019A0000069441025400000000000000000000015
:1019B00000D12AA8A80000000000000000000000DC
:1019C000003EAA2600000000000000000000000009
:1019D000000D750000000000000000000000000085
:1019E00000000000000000000000000000000000F7
:1019F00000000000000000000000000000000000E7
:101A0000000000000000000000F88BF8F2F95BF91C
:101A1000B7FA14FA66FAB9FB03FB4AFB8FFBCFFC5B
:101A20000BFC43FC78FCABFCDBFD08FD33FD5BFDF0
:101A300081FDA5FDC7FDE7FE05FE21FE3CFE55FE2E
:101A40006DFE84FE99FEADFEC0FE02FEE3FEF3FFD6
:101A500002FF10FF1DFF2AFF36FF42FF4CFF56FF1B
:101A600060FF69FF71FF79FF813134393835000437
:101A700011041104110414080D040F0812041108B4
:101A8000FFFF0004000400040D020F0211020D020A
:101A9000140611020F0414040F040D020A021106A9
:101AA0000D020C080D020C020A040C040D020F02B8
:101AB00008040D040F0211021204120211020F0297
:101AC0000D020F080D020F0211020D021406110281
:101AD0000F0414040F040D020A020A040C020D0282
:101AE000080A08020A040C040D020F0208040D047F
:101AF0000F0211021204120211020F020D020D0C4C
:101B0000FFFF000408020D0211041102110211046A
:101B10000F0211020F020D08000208020D0211044B
:101B20000F0211021404120211020F0C140212020D
:101B3000110411020F020D040F0211021402120A05
:101B400000020A020A0208040C020D020F0411022C
:101B50000F020D0CFFFF00040A020C020D060C021E
:101B60000D0411040C0C05040A0608020A040D04F5
:101B7000080C05040606050206020D06050C0D04F8
:101B80000C06070207040C040C0800040A020C02ED
:101B90000D060C020D0411040C0C050205020A06C8
:101BA00008020A040D04080C050406040D020C06C4
:101BB0000D040F0411020D08FFFF000411041102AF
:101BC0000F020D040D020A020F0211020F02110290
:101BD00008080A040A0208020A040D041402160284
:101BE000110214020F08FFFF010604070205060296
:101BF00002030402030506020305050207050306A6
:101C000007000000000000000000000000000000CD
:101C100000000000000000000000000000000000C4
:101C200000000000000000000000000000000000B4
:101C300000000000000000000000000000000000A4
:101C40000000000000000000000000000000000094
:101C50000000000000000000000000000000000084
:101C60000000000000000000000000000000000074
:101C70000000000000000000000000000000000064
:101C80000000000000000000000000000000000054
:101C90000000000000000000000000000000000044
:101CA0000000000000000000000000000000000034
:101CB0000000000000000000000000000000000024
:101CC0000000000000000000000000000000000014
:101CD0000000000000000000000000000000000004
:101CE00000000000000000000000000000000000F4
:101CF00000000000000000000000000000000000E4
:101D000000000000000000000000000000000000D3
:091D1000000000000000000000CA
:1028030005343030303030207A670004000400048F
:102813000004000400040004000400040004000495
:102823000004000400040004000400040004000485
:102833000004000400040004000400040004000475
:102843000004000400040004000400040004000465
:102853000004000400040004000400040004000455
:102863000004000400040004000400040004000445
:102873000004000400040004000400040004000435
:102883000004FFFF01322E013307013B0101430026
:10289300013A000139000F21FF1200FF1206FF1257
:0728A3000CFF1212FF1218D6
:10001E00E4F546F547F548754B20754A10122D4C00
:10002E007558FF755916755A01AB4BAD4A7F801244
:10003E0029507BFF7A1A796E121D19E4F5B3F5B4C7
:10004E00122D4C7F40122B687F50122BBB7F6012FB
:10005E0028AB7F701227447561FF75621275631E9F
:10006E007B10E4FD7F01122C5B7561FF75621275CA
:10007E00632F7B0E7D017F02122C5B7561FF756213
:10008E001275633C7B0C7D017F03122C5B7561FF47
:10009E007562127563497B0C7D017F04122C5B7FA8
:1000AE0014122E58E4F53B122D4C7561FF75621239
:1000BE007563567B047D037F01122C5BE4F546E5E8
:1000CE0046249AFF122DACE4FF122D84E4FF122D6C
:1000DE00840546E546C3940540E5E548249AFF129B
:0C00EE002DACE4FF122D847F02122D8443
:1000FA00C200E4F5497590F0E59054F064F060F5BB
:10010A00122DF3E59054F064F060EA122A6D8F49DB
:10011A007590F0E590B4F0FBE5491226C901460B4B
:10012A00014F0C01580D01610E016A150173160188
:10013A007C17018518018E1F000001977434254829
:10014A00F87631806174342548F8763280587434F0
:10015A002548F87633804F74342548F8763480463B
:10016A0074342548F87635803D74342548F8763657
:10017A00803474342548F87637802B74342548F84F
:10018A007638802274342548F876398019E5486033
:10019A0015C394044005E538B4300415488000744A
:1001AA00342548F87630E548C394045009E549C334
:1001BA00942050020548E4F54674342546F8E624AE
:1001CA00D06015E5462402FD74342546F9E4F5614C
:1001DA00F56289637B018010E5462402FD7561FFA3
:1001EA0075621275635B7B027F03122C5B0546E521
:1001FA0046C3940540C3E4F546E546249AFF122D0A
:10020A00ACE4FF122D84E4FF122D840546E546C3B3
:10021A00940540E5E548249AFF122DACE4FF122D1F
:10022A00847F02122D84E54864047027E549C3944B
:10023A00205020D200E4F546E546901A6993FF74EF
:10024A00342546F8E66F6004C20080070546E54695
:09025A00B405E52000030200FADE
:10026300E4F5417590F0F5B3F5B4122D4C7561FFCB
:1002730075621275635D7B08E4FD7F01122C5B756B
:1002830061FF7562127563667B0AE4FD7F02122CBF
:100293005B7561FF7562127563717B0AE4FD7F0311
:1002A300122C5B7561FF75621275637C7B0AE4FD3A
:1002B3007F04122C5BE59054F064F06003122DF37D
:1002C300E59054F064F060ED122A6D8F41E541C36F
:1002D300940B40E1E541D3940D50DAE54124F470E9
:1002E3000302054E14700302089224026003020203
:0102F30063A7
:1002F400754C01E54C24FE70030203FD0460030207
:100304000542E4F5407590F0122D4C7561FF75625D
:10031400127563877B08E4FD7F01122C5B7561FF16
:100324007562127563907B0AE4FD7F02122C5B7583
:1003340061FF75621275639B7B08E4FD7F03122CD9
:100344005B7561FF7562127563A47B08E4FD7F042D
:10035400122C5BE59054F064F060F8122DF3E590F4
:1003640054F064F060ED122A6D8F40E540640B6038
:1003740011E540640C600BE540640E6005E540B493
:100384002BD1E54024F4603B24FE60672403600322
:10039400020542122D4C7561FF7562127563AD7BC7
:1003A40008E4FD7F01122C5B7561FF7562127563B1
:1003B400B67B08E4FD7F04122C5B7BFF7A1A7982FA
:1003C40002053A122D4C7561FF7562127563BF7B8D
:1003D40006E4FD7F01122C5B7561FF756212756383
:1003E400B67B08E4FD7F04122C5B7BFF7A1B790249
:1003F40002053A754C02020542E4F5407590F0128C
:100404002D4C7561FF7562127563C67B0EE4FD7F2A
:1004140001122C5B7561FF7562127563D57B0AE46A
:10042400FD7F02122C5B7561FF7562127563E07BC0
:1004340006E4FD7F03122C5B7561FF756212756320
:10044400E77B08E4FD7F04122C5BE59054F064F034
:1004540060F8122DF3E59054F064F060ED122A6D0B
:100464008F40E540640B6011E540640C600BE5408F
:10047400640D6005E540B42BD1E54024F4603C14E0
:10048400700302053F24026003020542122D4C75DD
:1004940061FF7562127563F07B08E4FD7F01122C25
:1004A4005B7561FF7562127563B67B08E4FD7F04BA
:1004B400122C5B7BFF7A1B7956807B7869E6704946
:1004C400122D4C7561FF7562127563B67B08E4FDED
:1004D4007F04122C5B7561FF7562127563F97B06EC
:1004E4007D057F04122C5B7590F0E59054F064F068
:1004F40060F87F327E00122DF7E59054F064F060CE
:10050400E9122A6DBF2CE38035122D4C7561FF75FD
:1005140062137563007B067D057F04122C5B756195
:10052400FF7562127563B67B08E4FD7F04122C5BD1
:100534007B007A007967121D198003754C01E54030
:0A054400642B60030202F702026359
:10054E00C200122D4C7539017561FF75621375630A
:10055E00077B0CE4FD7F03122C5B7561FF75621344
:0C056E007563147B0AE4FD7F04122C5B13
:10057A00E4F54CF5407590F0E59054F064F06010A5
:10058A00122DF3E59054F064F06005122A6D8F4045
:10059A00E54024F4602114604C2402600302065BE7
:1005AA007561FF75621375631F7B08E4FD7F021294
:1005BA002C5B75430180297561FF75621375632889
:1005CA007B08E4FD7F02122C5BE4F543C200E5469A
:1005DA0025E02467F876FFE54625E02468F876FFEB
:1005EA00E4F546806C7869E670107561FF756212F1
:1005FA007563F97B06FD7F038054122D4C7561FFEC
:10060A007562137563317B047D067F01122C5B755D
:10061A0061FF7562137563367B047D067F03122CB6
:10062A005B7B007A007969121D19122D4C7561FFE6
:10063A007562137563077B0CE4FD7F03122C5B75EF
:10064A0061FF7562137563147B0AE4FD7F04122C43
:10065A005BE4F5427590F0E59054F064F060147F25
:10066A00327E00122DF7E59054F064F06005122AEC
:10067A006D8F42E580604CE54224D6601A04702EE4
:10068A007561FF75621375633B7B047D067F0112FA
:10069A002C5B754C01802C7561FF75621375634084
:1006AA007B047D067F01122C5B754CFF80157561FA
:1006BA00FF7562137563457B047D067F01122C5B0F
:1006CA00E4F54CE58030E01D7561FF7562137563D2
:1006DA004A7B08E4FD7F01122C5BE54C75F00CA403
:1006EA00240D0207B5E58030E11D7561FF756213BF
:1006FA007563527B08E4FD7F01122C5BE54C75F0B3
:10070A000CA4240F0207B5E58030E21D7561FF7560
:10071A00621375635A7B08E4FD7F01122C5BE54C7A
:10072A0075F00CA424110207B5E58030E31C75614D
:10073A00FF7562137563627B08E4FD7F01122C5B0F
:10074A00E54C75F00CA424128061E58030E41C7538
:10075A0061FF75621375636A7B08E4FD7F01122CE1
:10076A005BE54C75F00CA424148040E58030E51C50
:10077A007561FF7562137563727B08E4FD7F011270
:10078A002C5BE54C75F00CA42416801FE58030E63E
:10079A00217561FF75621375637A7B08E4FD7F0139
:1007AA00122C5BE54C75F00CA42418F5447545022F
:1007BA008019E4F544754502C28C7561FF756213B0
:1007CA007563827B08FD7F01122C5BE5436401702F
:1007DA002A200027E5446002D200E4F546AF460528
:1007EA0046EF6014E54625E02467F8E4F6E5462579
:1007FA00E02468F8E4F680E5754601E54364017093
:10080A0037300034E54625E02465F8E6B54410E5BE
:10081A004625E02466F8E6B404052404F68019E5C2
:10082A004625E02467F8A644E54525E0FFE5462588
:10083A00E02468F8A6070546E546C3943D402AE544
:10084A004625E02467F876FFE54625E02468F87631
:10085A00FFE4F546F543C2007561FF7562137563DF
:10086A00287B08FD7F02122C5BE5447004C28C8051
:10087A0002D28CAF45122E58E540642B6003020564
:03088A007AC28CA3
:05088D00F539020263D1
:10089200E4F54C122D4C7561FF75621375638A7B0A
:1008A2000AE4FD7F01122C5B7561FF7562137563AB
:1008B200957B0AE4FD7F02122C5B7561FF75621362
:1008C2007563A07B08E4FD7F04122C5B7590F0E554
:1008D2009054F064F060F5122DF3E59054F064F05A
:1008E20060EA122A6D8F4CE54C640B600BE54C6498
:1008F2000C6005E54CB42BD4E54C642B700302026A
:0D09020063E54C24F47003020E00047083C2
:10090F00754D01754E01E4F552F551122D4C75617F
:10091F00FF7562137563A97B08E4FD7F01122C5BE1
:10092F007561FF7562137563B27B08E4FD7F021278
:10093F002C5B7561FF7562137563BB7B0AE4FD7FEA
:10094F0003122C5B7561FF7562137563A07B08E45E
:10095F00FD7F04122C5BE4F5407590F0E59054F0A8
:10096F0064F060F8122DF3E59054F064F060ED122E
:10097F002A6D8F40E540642B600BE540640B6005EA
:10098F00E540B40CD7E540B42B05C28C020892E5C4
:10099F004024F4600B04700EE4F54D75530180068E
:1009AF00E4F54D755302E54D6003020D23122D4CF6
:0309BF0075460179
:1009C200E4F5540551754E01E553B4010DE5462594
:1009D200E02402F582E4341B8010E553B40211E5F1
:1009E2004625E02482F582E4341AF583E493F54F38
:1009F200E54FB40D0C7561FF7562137563C6020B8A
:100A02004CE54FB40F0C7561FF7562137563D50227
:100A12000B4CE54FB4110C7561FF7562137563E4FD
:100A2200020B4CE54FB4120C7561FF7562137563CE
:100A3200F3020B4CE54FB4140C7561FF756214752B
:100A42006302020B4CE54FB4160C7561FF7562141C
:100A5200756311020B4CE54FB4180C7561FF75629A
:100A620014756320020B4CE54FB4010C7561FF75E0
:100A7200621475632F020B4CE54FB4030C7561FFD2
:100A820075621475633E020B4CE54FB4050C75613B
:100A9200FF75621475634D020B4CE54FB4060C757D
:100AA20061FF75621475635C020B4CE54FB4080C70
:100AB2007561FF75621475636B020B4CE54FB40AE6
:100AC2000B7561FF75621475637A807EE54FB40C15
:100AD2000B7561FF756214756389806EE54FB419F9
:100AE2000B7561FF756214756398805EE54FB41BE8
:100AF2000B7561FF7562147563A7804EE54FB41DD7
:100B02000B7561FF7562147563B6803EE54FB41EC6
:100B12000B7561FF7562147563C5802EE54FB420B5
:100B22000B7561FF7562147563D4801EE54FB422A4
:100B32000B7561FF7562147563E3800EE54FB42493
:100B4200147561FF7562147563F27B0EE4FD7F021A
:100B5200122C5B800CE54F7008C28C754D01020DA2
:100B620023E54E64016003020D07F5427590F0E53E
:100B72009054F064F060147F327E00122DF7E590FD
:100B820054F064F06005122A6D8F42E580604CE5F6
:100B92004224D6601A04702E7561FF756213756364
:100BA2003B7B047D057F03122C5B755401802C7501
:100BB20061FF7562137563407B047D057F03122C10
:100BC2005B7554FF80157561FF7562137563457B14
:100BD200047D057F03122C5BE4F554E542B42C0539
:100BE200C28C020D07E58030E01D7561FF7562154C
:100BF2007563017B08E4FD7F03122C5BE55475F0FD
:100C02000CA4240D020CCFE58030E11D7561FF7547
:100C1200621575630A7B08E4FD7F03122C5BE554C1
:100C220075F00CA4240F020CCFE58030E21D756133
:100C3200FF7562157563137B08E4FD7F03122C5B5D
:100C4200E55475F00CA42411020CCFE58030E31CAE
:100C52007561FF75621575631C7B08E4FD7F0312E5
:100C62002C5BE55475F00CA424128061E58030E41D
:100C72001C7561FF7562157563257B08E4FD7F03B2
:100C8200122C5BE55475F00CA424148040E58030EE
:100C9200E51C7561FF75621575632E7B08E4FD7FA7
:100CA20003122C5BE55475F00CA42416801FE5801A
:100CB20030E6277561FF7562157563377B08E4FDC1
:100CC2007F03122C5BE55475F00CA42418FFF55039
:100CD200E4F54E8F447545088019E4F550F54475E6
:100CE20045027561FF7562157563407B08FD7F03E0
:100CF200122C5BE5447004C28C8002D28CAF451288
:100D02002E58020B63E542B42C04C28C80137FD0B0
:0C0D12007E07122DF7E54FB55002055288
:100D1E0005460209C2E552B4010B7561FF756215F5
:100D2E00756348807EE552B4020B7561FF756215DE
:100D3E00756351806EE552B4030B7561FF756215D4
:100D4E0075635A805EE552B4040B7561FF756215CA
:100D5E00756363804EE552B4050B7561FF756215C0
:100D6E0075636C803EE552B4060B7561FF756215B6
:100D7E00756375802EE552B4070B7561FF756215AC
:100D8E0075637E801EE552B4080B7561FF756215A2
:100D9E00756387800EE552B4090D7561FF75621596
:100DAE007563907B088021C3E5526480948A400D60
:100DBE007561FF7562157563997B0A800B7561FF0E
:100DCE007562157563A47B08E4FD7F04122C5BE449
:100DDE00F552F5517F32122E587590F0E59054F081
:100DEE0064F060F8122DF3E59054F064F060ED02BB
:020DFE00090FDB
:100E0000122D4CE4F5487561FF7562157563AD7B75
:100E100008FD7F01122C5B7561FF7562157563B665
:100E20007B08E4FD7F02122C5B7561FF756215750E
:100E300063BF7B10E4FD7F03122C5B7561FF75625D
:100E4000137563A07B08E4FD7F04122C5BE4F54678
:100E500074342546F876300546E546B405F2E4F5E7
:100E6000407590F0E59054F064F060F8122DF3E5D1
:100E70009054F064F060ED122A6D8F40E540642BD1
:100E8000600DE540C3940B5006E540942050D5E535
:100E900040642B7003020892122D4C122C0E7C0021
:100EA0007D051226938D3FE53F75F003A42421F8BC
:100EB000860308E6FA08E68B618A62F5637B06E43E
:100EC000FD7F01122C5BE5401226C90EED0B0EF7DB
:100ED0000C0F010D0F0B0E0F15150F1F160F2917F5
:100EE0000F33180F3D1F0F472000000F4F7F0B12CD
:100EF0002E5875300180587F0A122E5875300280A6
:100F00004E7F09122E5875300380447F08122E58E8
:100F1000753004803A7F07122E5875300580307F77
:100F200006122E5875300680267F05122E58753011
:100F300007801C7F04122E5875300880127F031220
:100F40002E5875300980087F02122E5875300A120B
:100F50002D4C758910758D3C758BB0D2AFD2ABD24C
:100F60008EE4F546E5462488FF122DACE4FF122DF1
:100F700084E4FF122D840546E546C3940540E5E56B
:100F8000482488FF122DACE4FF122D847F02122D1D
:010F900084DC
:100F9100C200E4F5497590F0E59054F064F060F515
:100FA100122DF3E59054F064F060EA122A6D8F4936
:100FB1007590F0E590B4F0FBE5491226C90FDD0B01
:100FC1000FE60C0FEF0D0FF80E100115100A161099
:100FD1001317101C1810251F0000102E74342548FB
:100FE100F87631806174342548F87632805874344B
:100FF1002548F87633804F74342548F87634804696
:1010010074342548F87635803D74342548F87636B1
:10101100803474342548F87637802B74342548F8A9
:101021007638802274342548F876398019E548608D
:1010310015C394044005E538B430041548800074A4
:10104100342548F87630E548C394045009E549C38E
:10105100942050020548E4F54674342546F8E62408
:10106100D0601074342546F9E4F561F56289637B3B
:1010710001800B7561FF75621275635B7B02AD4682
:101081007F02122C5B0546E546C3940540CBE4F58F
:1010910046E5462488FF122DACE4FF122D84E4FFBF
:1010A100122D840546E546C3940540E5E5482488AC
:1010B100FF122DACE4FF122D847F02122D84E5383E
:1010C10064307003021150D200E4F546E53F75F03B
:1010D10005A424E8F582E4341BF583E5822546F571
:1010E10082E43583F583E493FF74342546F8E624DE
:1010F100D06F6049C2007561FF7562157563D07B61
:101101000CE4FD7F01122C5B7561FF756213756341
:10111100A07B08E4FD7F04122C5BE59054F064F0A1
:1011210060F8122DF3E59054F064F060ED122A6D31
:101131008F40E540B42BE3E540642B60090546E5AB
:1011410046C394054086E540642B7003020E0020DF
:101151000003020F91C28E122D4C7561FF7562154D
:101161007563DD7B0CE4FD7F01122C5BE53AD394C2
:10117100645004741E800DE53AD394C85004741968
:10118100800274142530F530E53075F00A8424307E
:10119100F53CE53075F00A84E5F02430F53DE4F5E1
:1011A1003E7561FF7562157563EA7B06FD7F02126C
:1011B1002C5B75610075620075633C7B027D047F69
:1011C10002122C5B7561FF7562137563A07B08E4E5
:1011D100FD7F04122C5BE59054F064F060F8122D51
:1011E100F3E59054F064F060ED122A6D8F40E54014
:0F11F100B42BE3E540642B6003020F91020E0064
:092E830075B0FFE5B054F0FF2228
:042DF3007F647E007B
:102DF700E4FDFCC3ED9FEC9E5015E4FBFA0BBB0012
:0F2E0700010AEB64024A70F50DBD00010C80E476
:012E16002299
:102E5800EF75F00AA4FFEFD39400400B7EB57DB563
:072E6800DDFEDEFA1F80EF22
:012E6F002240
:082E8C007F967E96DEFEDFFA60
:012E9400221B
:03000B00022D17AC
:102D1700C0E0C083C082C0D0B2C5E54425E0240727
:102D2700F582E4341AF583E493F58CE54425E02431
:102D370008F582E4341AF583E493F58AD0D0D0827B
:052D4700D083D0E03252
:03001B00022E951D
:092E9500758D3C758AB0053A32D6
:061D19008B558A56895724
:101D1F00E4F558F559755B0278007C007D017BFF77
:101D2F007A1C79017E017F18122615758901D2AFB1
:101D3F00D2A9E53B64017045AB55AA56A95775F07A
:101D4F0002E558A4F58285F083122654F544E55830
:101D5F0075F002A429F9EA35F0FA90000112265421
:101D6F00F545E5447004C28C800AE544B4FF03C214
:101D7F008C22D28CAF45122E58055880BBAB55AA7A
:101D8F0056A95775F002E558A4F58285F0831226FF
:101D9F0054F544E55875F002A429F9EA35F0FA90A4
:101DAF000001122654F54575F004E559A42403F5F6
:101DBF0082E5F03400F583E544F0600CC3940D40E8
:101DCF000CE544D394185005E4F55C8028E544D322
:101DDF009400400BE544940D5005755CFF8016E5AB
:101DEF0044D39418400CE544D394245005755C01FA
:101DFF008003755C0275F004E559A42400F582E5B3
:101E0F00F03400F583E55CF064027003021F2CE5EB
:101E1F005C75F00CA4FFC3E5449FF55D7003021FD2
:101E2F000024F3B40C004003021F12901E4875F0FB
:101E3F0003A4C58325F0C58373021E6C021E6C02BA
:101E4F001E82021E82021E97021EAC021EAC021ED2
:101E5F00C1021EC1021ED6021ED6021EEB75F00471
:101E6F00E559A42401F582E5F03400F5837401F0FF
:101E7F00021F1275F004E559A42401F582E5F03430
:101E8F0000F5837402F0807B75F004E559A42401FA
:101E9F00F582E5F03400F5837403F0806675F00485
:101EAF00E559A42401F582E5F03400F5837404F0BC
:101EBF00805175F004E559A42401F582E5F0340052
:101ECF00F5837405F0803C75F004E559A42401F501
:101EDF0082E5F03400F5837406F0802775F004E591
:101EEF0059A42401F582E5F03400F5837407F080DE
:101EFF001275F004E559A42401F582E5F03400F5DC
:101F0F0083E4F075F004E559A42402F582E5F0347A
:101F1F0000F583E545F005590558021D8CE4F55889
:101F2F00E59054F064F06018122DF3E59054F064CE
:101F3F00F0600D122A6D8F40E540B42C03C28C2245
:101F4F0075F004E558A42401F582E5F03400F5831B
:101F5F00E0F55D75F004E558A42400F582E5F03452
:101F6F0000F583E0F55C75F004E558A42402F582D2
:101F7F00E5F03400F583E0F545E55CB40205C28C6D
:101F8F00022542E5585407F55AE539700302227AC3
:101F9F00E55C700302209B14700302217C24026015
:101FAF000302227AE55D14B4070040030220569025
:101FBF001FCC75F003A4C58325F0C58373021FE101
:101FCF00021FF10220010220110220210220310202
:101FDF002041E55B2402FF7561FF7562157563F1A2
:101FEF00805EE55B2402FF7561FF7562157563F313
:101FFF00804EE55B2402FF7561FF7562157563F511
:10200F00803EE55B2402FF7561FF7562157563F70E
:10201F00802EE55B2402FF7561FF7562157563F90C
:10202F00801EE55B2402FF7561FF7562157563FB0A
:10203F00800EE55B2402FF7561FF7562157563FD08
:10204F007B02AD5A122C5BE54524FC601D24FC601D
:10205F002B2406600302227AE55A2488FF122DAC46
:10206F00E4FF122D847F06022176E55A2488FF12A1
:10207F002DACE4FF122D847F04022176E55B04FF73
:10208F00756100756200756333022273E55DB408F4
:10209F000040030221499020ACF82828730220C485
:1020AF000220D40220E40220F402210402211402AF
:1020BF002124022134E55B2402FF7561FF7562154F
:1020CF007563FF806EE55B2402FF7561FF75621516
:1020DF007563F1805EE55B2402FF7561FF75621524
:1020EF007563F3804EE55B2402FF7561FF75621522
:1020FF007563F5803EE55B2402FF7561FF75621520
:10210F007563F7802EE55B2402FF7561FF7562151D
:10211F007563F9801EE55B2402FF7561FF7562151B
:10212F007563FB800EE55B2402FF7561FF75621519
:10213F007563FD7B02AD5A122C5BE54524FC6018DC
:10214F002402600302227AE55A2488FF122DACE4A0
:10215F00FF122D847F02800FE55A2488FF122DACC9
:10216F00E4FF122D84E4FF122D8402227AE55D1420
:10217F00B40700400302221F90219575F003A4C5F8
:10218F008325F0C583730221AA0221BA0221CA0254
:10219F0021DA0221EA0221FA02220AE55B2402FF78
:1021AF007561FF7562157563F1805EE55B2402FF53
:1021BF007561FF7562157563F3804EE55B2402FF51
:1021CF007561FF7562157563F5803EE55B2402FF4F
:1021DF007561FF7562157563F7802EE55B2402FF4D
:1021EF007561FF7562157563F9801EE55B2402FF4B
:1021FF007561FF7562157563FB800EE55B2402FF49
:10220F007561FF7562157563FD7B02AD5A122C5B0C
:10221F00E54524FC601924FC602924067039E55A31
:10222F002488FF122DACE4FF122D847F02800FE56E
:10223F005A2488FF122DACE4FF122D84E4FF122DD7
:10224F00848000E55B14FF75610075620075633271
:10225F007B01AD5A122C5BE55B14FF756100756253
:10226F00007563327B01AD5A122C5BE55C70030283
:10227F00235214700302240D240260030224E7E5A5
:10228F005D14B4070050779022A475F003A4C583A2
:10229F0025F0C583730222B90222C40222CF022283
:1022AF00DA0222E50222F00222FB7561FF75621548
:1022BF007563F180407561FF7562157563F3803545
:1022CF007561FF7562157563F5802A7561FF75621B
:1022DF00157563F7801F7561FF7562157563F9805A
:1022EF00147561FF7562157563FB80097561FF7564
:1022FF0062157563FD7B02AD5AAF5B122C5BE54532
:10230F0024FC601D24FC602B240660030224E7E5F7
:10231F005A2488FF122DACE4FF122D847F0602246D
:10232F0007E55A2488FF122DACE4FF122D847F0499
:10233F00022407E55B04FF75610075620075633366
:10234F000224E0E55DB4080040030223DA90236322
:10235F00F828287302237B02238602239102239CF1
:10236F000223A70223B20223BD0223C87561FF75A2
:10237F0062157563FF804B7561FF7562157563F1AB
:10238F0080407561FF7562157563F380357561FF68
:10239F007562157563F5802A7561FF756215756332
:1023AF00F7801F7561FF7562157563F9801475618C
:1023BF00FF7562157563FB80097561FF7562157591
:1023CF0063FD7B02AD5AAF5B122C5BE54524FC60CD
:1023DF0018240260030224E7E55A2488FF122DAC6B
:1023EF00E4FF122D847F02800FE55A2488FF122DFF
:1023FF00ACE4FF122D84E4FF122D840224E7E55D87
:10240F0014B40700507790242375F003A4C58325D7
:10241F00F0C5837302243802244302244E02245948
:10242F0002246402246F02247A7561FF75621575A8
:10243F0063F180407561FF7562157563F3803575C3
:10244F0061FF7562157563F5802A7561FF756215F9
:10245F007563F7801F7561FF7562157563F98014D9
:10246F007561FF7562157563FB80097561FF756294
:10247F00157563FD7B02AD5AAF5B122C5BE54524EE
:10248F00FC601924FC602924067039E55A2488FF62
:10249F00122DACE4FF122D847F02800FE55A2488A1
:1024AF00FF122DACE4FF122D84E4FF122D84800067
:1024BF00E55B14FF7561007562007563327B01ADDA
:1024CF005A122C5BE55B14FF756100756200756332
:1024DF00327B01AD5A122C5BE55AB4071F055BE541
:1024EF005BB40318755B02122D4C7561FF75621298
:1024FF007563B67B08E4FD7F04122C5BE55D700409
:10250F00C28C8015D28C75F004E558A42403F58293
:10251F00E5F03400F583E0F54475F004E558A424A4
:10252F0002F582E5F03400F583E0FF122E580558CE
:05253F00021F2FC28CF9
:012544002274
:102A6D00E4F55EF55F7590F0E59054F0FF54F0FEDF
:102A7D00BEF0037F002275900FE590540F4FF412B6
:102A8D0026C92AC3112ACF122ADB142AE7182AC60F
:102A9D00212AD2222ADE242AEA282AC9412AD5420D
:102AAD002AE1442AED482ACC812AD8822AE4842AB4
:102ABD00F08800002AF37F0B227F0C227F0D227FEE
:102ACD000E227F15227F16227F17227F18227F1F4D
:102ADD00227F20227F21227F22227F29227F2A22EC
:082AED007F2B227F2C227F00C9
:012AF50022BE
:030000000229E1F1
:0C29E100787FE4F6D8FD7581E0022A281A
:10254500E709F608DFFA8046E709F208DFFA803E78
:1025550088828C83E709F0A3DFFA8032E309F60865
:10256500DFFA8078E309F208DFFA807088828C83CD
:10257500E309F0A3DFFA806489828A83E0A3F60881
:10258500DFFA805889828A83E0A3F208DFFA804C5B
:1025950080D280FA80C680D4806980F28033801032
:1025A50080A680EA809A80A880DA80E280CA80339B
:1025B50089828A83ECFAE493A3C8C582C8CCC58313
:1025C500CCF0A3C8C582C8CCC583CCDFE9DEE780E3
:1025D5000D89828A83E493A3F608DFF9ECFAA9F062
:1025E500EDFB2289828A83ECFAE0A3C8C582C8CCB8
:1025F500C583CCF0A3C8C582C8CCC583CCDFEADED1
:10260500E880DB89828A83E493A3F208DFF980CC32
:1026150088F0EF60010E4E60C388F0ED2402B4042B
:102625000050B9F582EB2402B4040050AF232345D2
:062635008223902595733D
:10263B00BB010689828A83E0225002E722BBFE029D
:09264B00E32289828A83E49322D0
:10265400BB010CE58229F582E5833AF583E022503B
:1026640006E92582F8E622BBFE06E92582F8E22285
:0D267400E58229F582E5833AF583E493229F
:10268100EF8DF0A4A8F0CF8CF0A428CE8DF0A42E6D
:02269100FE2227
:10269300C2D5EC30E709B2D5E4C39DFDE49CFCEE62
:1026A30030E715B2D5E4C39FFFE49EFE1226EFC3C5
:1026B300E49DFDE49CFC80031226EF30D507C3E4C0
:0626C3009FFFE49EFE22D1
:1026C900D083D082F8E4937012740193700DA3A3A0
:1026D90093F8740193F5828883E4737402936860B4
:0626E900EFA3A3A380DFB4
:102C0E00AC17AD18AE19AF1A7810EC4D4E4F7004CC
:102C1E007CA57DA5C3EC13FCED13FDEE13FEEF13A7
:102C2E00FF5010EC64CCFCED644CFDEE644EFEEFF8
:102C3E0064CEFFD8DF8C178D188E198F1AEE547F45
:0D2C4E00FE228E178F1874A5F519F51A22B5
:1029ED0002001EE493A3F8E493A34003F68001F2E2
:1029FD0008DFF48029E493A3F85407240CC8C333EB
:102A0D00C4540F4420C8834004F456800146F6DFB9
:102A1D00E4800B0102040810204080902803E47E1E
:102A2D00019360BCA3FF543F30E509541FFEE493AE
:102A3D00A360010ECF54C025E060A840B8E493A375
:102A4D00FAE493A3F8E493A3C8C582C8CAC583CAA0
:102A5D00F0A3C8C582C8CAC583CADFE9DEE780BE58
:0128AA00002D
:1026EF00BC000BBE0029EF8DF084FFADF022E4CCCF
:1026FF00F875F008EF2FFFEE33FEEC33FCEE9DEC98
:10270F00984005FCEE9DFE0FD5F0E9E4CEFD22EDDD
:10271F00F8F5F0EE8420D21CFEADF075F008EF2F27
:10272F00FFED33FD4007985006D5F0F222C398FD18
:05273F000FD5F0EA22B5
:00000001FF
